:020000040800F2
:1000000000C00020691D0008CD190008D3190008A0
:10001000D9190008DF190008E519000800000000E0
:10002000000000000000000000000000EB190008C4
:10003000F719000800000000031A00080F1A000852
:10004000B11D0008B11D0008B11D0008B11D000858
:10005000B11D0008B11D0008B11D0008B11D000848
:10006000B11D0008B11D0008B11D0008B11D000838
:10007000B11D0008B11D0008B11D0008B11D000828
:10008000B11D0008B11D0008B11D0008B11D000818
:10009000B11D0008B11D0008B11D0008B11D000808
:1000A000B11D0008B11D0008B11D0008B11D0008F8
:1000B000B11D0008B11D0008B11D0008B11D0008E8
:1000C000B11D0008B11D0008B11D0008B11D0008D8
:1000D000B11D0008B11D0008B11D0008B11D0008C8
:1000E000B11D0008B11D0008B11D0008B11D0008B8
:1000F000B11D0008B11D0008B11D0008B11D0008A8
:10010000B11D0008B11D0008B11D0008B11D000897
:10011000B11D0008B11D0008B11D0008B11D000887
:10012000B11D0008B11D0008B11D0008B11D000877
:1001300000000000000000000000000000000000BF
:1001400000000000000000000000000000000000AF
:10015000000000000000000000000000000000009F
:10016000000000000000000000000000000000008F
:10017000000000000000000000000000000000007F
:10018000000000000000000000000000000000006F
:10019000000000000000000000000000000000005F
:1001A000000000000000000000000000000000004F
:1001B000000000000000000000000000000000003F
:1001C000000000000000000000000000000000002F
:1001D000000000000000000000000000000000001F
:0401E0005FF8E0F1F3
:1001E80010B5054C237833B9044B13B10448AFF369
:1001F80000800123237010BD100A002000000000B9
:1002080088C6000808B5034B1BB103490348AFF380
:10021800008008BD00000000140A002088C60008FD
:1002280080F0004002E000BF81F0004142001FBFA3
:100238005FEA410392EA030F7FEA226C7FEA236CAC
:100248006AD04FEA1262D2EB1363C1BFD2184140A1
:1002580048404140B8BF5B42192B88BF704710F037
:10026800004F40F4000020F07F4018BF404211F0DA
:10027800004F41F4000121F07F4118BF494292EA42
:10028800030F3FD0A2F1010241FA03FC10EB0C006E
:10029800C3F1200301FA03F100F0004302D54942FB
:1002A80060EB4000B0F5000F13D3B0F1807F06D3A8
:1002B80040084FEA310102F10102FE2A51D2B1F1A0
:1002C800004F40EBC25008BF20F0010040EA030095
:1002D8007047490040EB0000013A28BFB0F5000F15
:1002E800EDD2B0FA80FCACF1080CB2EB0C0200FACB
:1002F8000CF0AABF00EBC25052421843BCBFD0401A
:100308001843704792F0000F81F4000106BF80F493
:1003180000000132013BB5E74FEA41037FEA226C56
:1003280018BF7FEA236C21D092EA030F04D092F021
:10033800000F08BF0846704790EA010F1CBF002055
:10034800704712F07F4F04D1400028BF40F00040B2
:10035800704712F100723CBF00F50000704700F0D2
:10036800004343F0FE4040F4000070477FEA2262F9
:1003780016BF08467FEA23630146420206BF5FEACA
:10038800412390EA010F40F4800070474FF00003CA
:1003980004E000BF10F0004348BF40425FEA000C91
:1003A80008BF704743F0964301464FF000001CE039
:1003B80050EA010208BF70474FF000030AE000BF8F
:1003C80050EA010208BF704711F0004302D54042CD
:1003D80061EB41015FEA010C02BF8446014600203F
:1003E80043F0B64308BFA3F18053A3F50003BCFA5A
:1003F8008CF2083AA3EBC25310DB01FA02FC634407
:1004080000FA02FCC2F12002BCF1004F20FA02F20D
:1004180043EB020008BF20F00100704702F1200200
:1004280001FA02FCC2F1200250EA4C0021FA02F261
:1004380043EB020008BF20EADC7070474FF0FF0C66
:100448001CEAD0521EBF1CEAD15392EA0C0F93EA61
:100458000C0F6FD01A4480EA010C400218BF5FEA03
:1004680041211ED04FF0006343EA501043EA511176
:10047800A0FB01310CF00040B1F5000F3EBF490070
:1004880041EAD3715B0040EA010062F17F02FD2A74
:100498001DD8B3F1004F40EBC25008BF20F0010057
:1004A800704790F0000F0CF0004C08BF49024CEA6E
:1004B800502040EA51207F3AC2BFD2F1FF0340EA00
:1004C800C250704740F400004FF00003013A5DDC71
:1004D80012F1190FDCBF00F000407047C2F10002B2
:1004E800410021FA02F1C2F1200200FA02FC5FEA9F
:1004F800310040F1000053EA4C0308BF20EADC70E9
:10050800704792F0000F00F0004C02BF400010F45A
:10051800000F013AF9D040EA0C0093F0000F01F007
:10052800004C02BF490011F4000F013BF9D041EA29
:100538000C018FE70CEAD15392EA0C0F18BF93EA2B
:100548000C0F0AD030F0004C18BF31F0004CD8D155
:1005580080EA010000F00040704790F0000F17BFDC
:1005680090F0004F084691F0000F91F0004F14D022
:1005780092EA0C0F01D142020FD193EA0C0F03D17A
:100588004B0218BF084608D180EA010000F000407D
:1005980040F0FE4040F40000704740F0FE4040F458
:1005A800400070474FF0FF0C1CEAD0521EBF1CEAF7
:1005B800D15392EA0C0F93EA0C0F69D0A2EB030215
:1005C80080EA010C49024FEA402037D04FF08053AF
:1005D80043EA111143EA10130CF000408B4238BF74
:1005E8005B0042F17D024FF4000C8B4224BF5B1A82
:1005F80040EA0C00B3EB510F24BFA3EB510340EAD0
:100608005C00B3EB910F24BFA3EB910340EA9C007D
:10061800B3EBD10F24BFA3EBD10340EADC001B01ED
:1006280018BF5FEA1C1CE0D1FD2A3FF650AF8B4291
:1006380040EBC25008BF20F0010070470CF0004C9E
:100648004CEA50207F32C2BFD2F1FF0340EAC250C9
:10065800704740F400004FF00003013A37E792F08A
:10066800000F00F0004C02BF400010F4000F013AE8
:10067800F9D040EA0C0093F0000F01F0004C02BFE3
:10068800490011F4000F013BF9D041EA0C0195E74C
:100698000CEAD15392EA0C0F08D142027FF47DAFE5
:1006A80093EA0C0F7FF470AF084676E793EA0C0FD5
:1006B80004D14B023FF44CAF08466EE730F0004CD3
:1006C80018BF31F0004CCAD130F000427FF45CAF63
:1006D80031F000437FF43CAF5FE700BF4FF0FF3CD1
:1006E80006E000BF4FF0010C02E000BF4FF0010C24
:1006F8004DF804CD4FEA40024FEA41037FEA226CED
:1007080018BF7FEA236C11D001B052EA530C18BF0E
:1007180090EA010F58BFB2EB030088BFC81738BF73
:100728006FEAE17018BF40F0010070477FEA226C61
:1007380002D15FEA402C05D17FEA236CE4D15FEA5D
:10074800412CE1D05DF8040B704700BF8446084691
:100758006146FFE70FB5FFF7C9FF002848BF10F152
:10076800000F0FBD4DF808EDFFF7F4FF0CBF012097
:1007780000205DF808FB00BF4DF808EDFFF7EAFF21
:1007880034BF012000205DF808FB00BF4DF808EDDC
:10079800FFF7E0FF94BF012000205DF808FB00BFD1
:1007A8004DF808EDFFF7D2FF94BF012000205DF857
:1007B80008FB00BF4DF808EDFFF7C8FF34BF012064
:1007C80000205DF808FB00BF42000ED2B2F1FE4FD8
:1007D8000BD34FF09E03B3EB126209D44FEA002308
:1007E80043F0004323FA02F070474FF000007047CF
:1007F80012F1610F01D1420202D14FF0FF30704770
:100808004FF00000704700BF844641EA000313F030
:10081800030349D1403A23D30B6803604B68436014
:100828008B688360CB68C3600B6903614B69436164
:100838008B698361CB69C3610B6A03624B6A43624C
:100848008B6A8362CB6AC3620B6B03634B6B436334
:100858008B6B8363CB6BC36340304031403ADBD250
:1008680030320BD30B6803604B6843608B6883603E
:10087800CB68C36010301031103AF3D20C3205D374
:1008880051F8043B40F8043B043AF9D2043208D04A
:10089800D2071CBF11F8013B00F8013B01D30B88BC
:1008A80003806046704700BF082A13D38B07B1D076
:1008B80010F00303AED0C3F10403D21ADB071CBF48
:1008C80011F8013B00F8013BA4D331F8023B20F8B2
:1008D800023B9FE7043AD9D3013A11F8013B00F8EB
:1008E800013BF9D20B7803704B7843708B78837097
:1008F8006046704781F0004102E000BF83F000438A
:1009080030B54FEA41044FEA430594EA050F08BFA2
:1009180090EA020F1FBF54EA000C55EA020C7FEA66
:10092800645C7FEA655C00F0E2804FEA5454D4EBE3
:100938005555B8BF6D420CDD2C4480EA020281EAAD
:10094800030382EA000083EA010180EA020281EAE5
:100958000303362D88BF30BD11F0004F4FEA013137
:100968004FF4801C4CEA113102D0404261EB410146
:1009780013F0004F4FEA03334CEA133302D05242CC
:1009880063EB430394EA050F00F0A780A4F1010488
:10099800D5F1200E0DDB02FA0EFC22FA05F28018C2
:1009A80041F1000103FA0EF2801843FA05F35941A8
:1009B8000EE0A5F120050EF1200E012A03FA0EFC27
:1009C80028BF4CF0020C43FA05F3C01851EBE37151
:1009D80001F0004507D54FF0000EDCF1000C7EEB6E
:1009E80000006EEB0101B1F5801F1BD3B1F5001FAC
:1009F8000CD349085FEA30004FEA3C0C04F10104CB
:100A08004FEA445212F5800F80F09A80BCF1004FF3
:100A180008BF5FEA500C50F1000041EB045141EA75
:100A2800050130BD5FEA4C0C404141EB0101013C3E
:100A380028BFB1F5801FE9D291F0000F04BF01462D
:100A48000020B1FA81F308BF2033A3F10B03B3F1FF
:100A580020020CDA0C3208DD02F1140CC2F10C028F
:100A680001FA0CF021FA02F10CE002F11402D8BFED
:100A7800C2F1200C01FA02F120FA0CFCDCBF41EAB9
:100A88000C019040E41AA2BF01EB0451294330BD88
:100A98006FEA04041F3C1CDA0C340EDC04F1140465
:100AA800C4F1200220FA04F001FA02F340EA03003C
:100AB80021FA04F345EA030130BDC4F10C04C4F182
:100AC800200220FA02F001FA04F340EA0300294662
:100AD80030BD21FA04F0294630BD94F0000F83F4AC
:100AE800801306BF81F480110134013D4EE77FEA8F
:100AF800645C18BF7FEA655C29D094EA050F08BFDB
:100B080090EA020F05D054EA000C04BF19461046BB
:100B180030BD91EA030F1EBF0021002030BD5FEAFF
:100B2800545C05D14000494128BF41F0004130BD27
:100B380014F580043CBF01F5801130BD01F000457B
:100B480045F0FE4141F470014FF0000030BD7FEAEE
:100B5800645C1ABF194610467FEA655C1CBF0B46E9
:100B6800024650EA013406BF52EA033591EA030F00
:100B780041F4002130BD00BF90F0000F04BF0021F8
:100B8800704730B54FF4806404F132044FF000052B
:100B98004FF0000150E700BF90F0000F04BF0021A4
:100BA800704730B54FF4806404F1320410F000450A
:100BB80048BF40424FF000013EE700BF42004FEA05
:100BC800E2014FEA31014FEA02701FBF12F07F4382
:100BD80093F07F4F81F06051704732F07F4208BF39
:100BE800704793F07F4F04BF41F40021704730B540
:100BF8004FF4607401F0004521F000411CE700BF8C
:100C080050EA010208BF704730B54FF000050AE00E
:100C180050EA010208BF704730B511F0004502D50F
:100C2800404261EB41014FF4806404F132045FEA11
:100C3800915C3FF4D8AE4FF003025FEADC0C18BFBA
:100C480003325FEADC0C18BF033202EBDC02C2F1AC
:100C5800200300FA03FC20FA02F001FA03FE40EA3E
:100C68000E0021FA02F11444BDE600BF70B54FF042
:100C7800FF0C4CF4E06C1CEA11541DBF1CEA135520
:100C880094EA0C0F95EA0C0F00F0DEF82C4481EA88
:100C9800030621EA4C5123EA4C5350EA013518BFA8
:100CA80052EA033541F4801143F4801338D0A0FB95
:100CB80002CE4FF00005E1FB02E506F00042E0FB42
:100CC80003E54FF00006E1FB03569CF0000F18BF48
:100CD8004EF0010EA4F1FF04B6F5007F64F54074F0
:100CE80004D25FEA4E0E6D4146EB060642EAC62183
:100CF80041EA55514FEAC52040EA5E504FEACE2EF0
:100D0800B4F1FD0C88BFBCF5E06F1ED8BEF1004FF2
:100D180008BF5FEA500E50F1000041EB045170BD6E
:100D280006F0004646EA010140EA020081EA0301B2
:100D3800B4EB5C04C2BFD4EB0C0541EA045170BDAE
:100D480041F480114FF0000E013C00F3AB8014F128
:100D5800360FDEBF002001F0004170BDC4F1000471
:100D6800203C35DA0C341BDC04F11404C4F12005F2
:100D780000FA05F320FA04F001FA05F240EA02004D
:100D880001F0004221F0004110EBD37021FA04F683
:100D980042EB06015EEA430E08BF20EAD37070BD3D
:100DA800C4F10C04C4F1200500FA04F320FA05F09C
:100DB80001FA04F240EA020001F0004110EBD3709E
:100DC80041F100015EEA430E08BF20EAD37070BD0E
:100DD800C4F1200500FA05F24EEA020E20FA04F3E7
:100DE80001FA05F243EA020321FA04F001F0004196
:100DF80021FA04F220EA020000EBD3705EEA430E07
:100E080008BF20EAD37070BD94F0000F0FD101F035
:100E18000046400041EB010111F4801F08BF013C6E
:100E2800F7D041EA060195F0000F18BF704703F0AC
:100E38000046520043EB030313F4801F08BF013D33
:100E4800F7D043EA0603704794EA0C0F0CEA1355EF
:100E580018BF95EA0C0F0CD050EA410618BF52EAA9
:100E68004306D1D181EA030101F000414FF00000AF
:100E780070BD50EA410606BF1046194652EA4306BD
:100E880019D094EA0C0F02D150EA013613D195EA31
:100E98000C0F05D152EA03361CBF104619460AD179
:100EA80081EA030101F0004141F0FE4141F4700183
:100EB8004FF0000070BD41F0FE4141F4780170BD73
:100EC80070B54FF0FF0C4CF4E06C1CEA11541DBFD8
:100ED8001CEA135594EA0C0F95EA0C0F00F0A7F8DA
:100EE800A4EB050481EA030E52EA03354FEA013107
:100EF80000F088804FEA03334FF0805545EA13131A
:100F080043EA12634FEA022245EA111545EA1065E1
:100F18004FEA00260EF000419D4208BF964244F178
:100F2800FD0404F5407402D25B084FEA3202B61A97
:100F380065EB03055B084FEA32024FF480104FF46B
:100F4800002CB6EB020E75EB030E22BFB61A7546DF
:100F580040EA0C005B084FEA3202B6EB020E75EB72
:100F6800030E22BFB61A754640EA5C005B084FEADA
:100F78003202B6EB020E75EB030E22BFB61A7546A7
:100F880040EA9C005B084FEA3202B6EB020E75EBB2
:100F9800030E22BFB61A754640EADC0055EA060E73
:100FA80018D04FEA051545EA16754FEA06164FEAB6
:100FB800C30343EA52734FEAC2025FEA1C1CC0D162
:100FC80011F4801F0BD141EA00014FF000004FF0EF
:100FD800004CB6E711F4801F04BF01430020B4F1B0
:100FE800FD0C88BFBCF5E06F3FF6AFAEB5EB030C68
:100FF80004BFB6EB020C5FEA500C50F1000041EB65
:10100800045170BD0EF0004E4EEA113114EB5C0431
:10101800C2BFD4EB0C0541EA045170BD41F4801104
:101028004FF0000E013C90E645EA060E8DE60CEA0C
:10103800135594EA0C0F08BF95EA0C0F3FF43BAF29
:1010480094EA0C0F0AD150EA01347FF434AF95EAE0
:101058000C0F7FF425AF104619462CE795EA0C0FC4
:1010680006D152EA03353FF4FDAE1046194622E791
:1010780050EA410618BF52EA43067FF4C5AE50EA6B
:1010880041047FF40DAF52EA43057FF4EBAE12E75B
:101098004FF0FF3C06E000BF4FF0010C02E000BF3C
:1010A8004FF0010C4DF804CD4FEA410C7FEA6C5C1F
:1010B8004FEA430C18BF7FEA6C5C1BD001B050EAC2
:1010C800410C0CBF52EA430C91EA030F02BF90EAAD
:1010D800020F0020704710F1000F91EA030F58BF6C
:1010E800994208BF90422CBFD8176FEAE37040F0CE
:1010F800010070474FEA410C7FEA6C5C02D150EA6C
:10110800013C07D14FEA430C7FEA6C5CD6D152EA26
:10111800033CD3D05DF8040B704700BF84461046EB
:1011280062468C461946634600E000BF01B5FFF7EA
:10113800B7FF002848BF10F1000F01BD4DF808EDBA
:10114800FFF7F4FF0CBF012000205DF808FB00BF8B
:101158004DF808EDFFF7EAFF34BF012000205DF8E5
:1011680008FB00BF4DF808EDFFF7E0FF94BF012032
:1011780000205DF808FB00BF4DF808EDFFF7CEFF33
:1011880094BF012000205DF808FB00BF4DF808ED72
:10119800FFF7C4FF34BF012000205DF808FB00BF43
:1011A8004FEA410C7FEA6C5C02D150EA013C0AD15B
:1011B8004FEA430C7FEA6C5C02D152EA033C02D14D
:1011C8004FF0000070474FF0010070474FEA4102AE
:1011D80012F5001215D211D56FF47873B3EB625281
:1011E80012D94FEAC12343F0004343EA505311F0A8
:1011F800004F23FA02F018BF404270474FF000003A
:10120800704750EA013005D111F0004008BF6FF077
:10121800004070474FF00000704700BF53B94AB90B
:10122800002908BF00281CBF4FF0FF314FF0FF30E6
:1012380000F076B9ADF1080C6DE904CE00F006F8BF
:10124800DDF804E0DDE9022304B070472DE9F0473A
:10125800089E0D4604468846002B4DD18A42944686
:1012680068D9B2FA82F252B101FA02F3C2F120014E
:1012780020FA01F10CFA02FC41EA030894404FEA13
:101288001C41B8FBF1F71FFA8CFE01FB178807FB1E
:101298000EF0230C43EA084398420AD91CEB0303D7
:1012A80007F1FF3580F01E81984240F21B81023F12
:1012B80063441B1AB3FBF1F001FB103300FB0EFE75
:1012C800A4B244EA0344A6450AD91CEB040400F17D
:1012D800FF3380F00981A64540F206816444023854
:1012E8000021A4EB0E0440EA07401EB10023D440BD
:1012F800C6E90043BDE8F0878B4208D9002E00F00C
:10130800EE800021C6E900050846BDE8F087B3FA7B
:1013180083F100294AD1AB4202D3824200F2FC8019
:10132800841A65EB030301209846002EE2D0C6E933
:101338000048DFE702B9FFDEB2FA82F2002A40F085
:101348009180A1EB0C0001214FEA1C471FFA8CFE8B
:10135800B0FBF7F307FB1300250C45EA00450EFB2D
:1013680003F0A84208D91CEB050503F1FF3802D2A7
:10137800A84200F2CE8043462D1AB5FBF7F007FBD2
:1013880010550EFB00FEA4B244EA0544A64508D950
:101398001CEB040400F1FF3502D2A64500F2B6802A
:1013A8002846A4EB0E0440EA03409EE7C1F120075B
:1013B8008B4022FA07FC4CEA030C25FA07FA4FEA9D
:1013C8001C49BAFBF9F820FA07F309FB18AA8D4063
:1013D8001FFA8CFE1D4300FA01F308FB0EF02C0CDB
:1013E80044EA0A44A04202FA01F20BD91CEB0404B5
:1013F80008F1FF3A80F08880A04240F28580A8F189
:1014080002086444241AB4FBF9F009FB104400FBF9
:101418000EFEADB245EA0444A64508D91CEB040407
:1014280000F1FF356CD2A6456AD90238644440EA17
:101438000840A0FB0295A4EB0E04AC42C846AE4699
:1014480056D353D0002E69D0B3EB080264EB0E04D8
:1014580022FA01F304FA07F71F43CC40C6E90074E7
:10146800002147E70CFA02FCC2F1200125FA01F33A
:101478004FEA1C4720FA01F195400D43B3FBF7F101
:1014880007FB11331FFA8CFE280C40EA034001FBCE
:101498000EF3834204FA02F408D91CEB000001F1B0
:1014A800FF382FD283422DD902396044C01AB0FBCD
:1014B800F7F307FB1300ADB245EA004503FB0EF056
:1014C800A84208D91CEB050503F1FF3816D2A8423B
:1014D80014D9023B6544281A43EA014138E73146EA
:1014E800304607E72F46E4E61846F9E64B45A9D209
:1014F800B9EB020865EB0C0E0138A3E74346EAE7AF
:10150800284694E74146D1E7D0467BE76444023851
:1015180047E7023B65442FE7084606E73146E9E618
:10152800704700BF80B588B000AF07F110030022F4
:101538001A605A609A60DA60364B9B69354A43F004
:1015480020039361334B9B6903F02003FB60FB6826
:10155800304B9B692F4A43F0040393612D4B9B69E1
:1015680003F00403BB60BB682A4B9B69294A43F01C
:1015780010039361274B9B6903F010037B607B6822
:1015880000220821244800F026FF0022F0212348E9
:1015980000F021FF00220421214800F01CFF042351
:1015A8003B6100237B610023BB6107F110031946EF
:1015B800194800F065FD08233B6101237B61012385
:1015C800BB610323FB6107F110031946124800F0C1
:1015D80057FDF0233B6101237B610023BB6102239C
:1015E800FB6107F1100319460C4800F049FD04237C
:1015F8003B6101237B610023BB610223FB6107F18F
:1016080010031946064800F03BFD00BF2037BD46D1
:1016180080BD00BF001002400008014000100140DA
:101628000014014080B500AF00F0C0FB00F076F870
:10163800FFF778FF00F014F900F01AFB00F0B0FA99
:1016480003F034F802F04EF902F06EFD2B4803F077
:101658004DFA2B4803F04AFA2A4B1B8849F24132CB
:10166800934203D1062002F089FD08E0254B1B8830
:1016780048F25252934202D1002002F07FFD00F05E
:1016880093F802F073F803461F4A136001F0B4FFA1
:101698004FF4FC6002F0E4FF1C4B1B681A461C491F
:1016A8001C4803F02BFA02F0D1FF0346DB881A46E8
:1016B800920013449BB2184602F0E2FF02F0C6FF04
:1016C8000346DB881A46920013449BB21149184618
:1016D80002F04AFF002204210F4800F07CFE4FF47C
:1016E800FA7000F0C5FB012204210B4800F073FEDC
:1016F8004FF4FA7000F0BCFBC8E700BFA0C60008B2
:10170800F0C60008D80B0020880B0020800B0020B2
:1017180064C700082C0A00200010014080B590B072
:1017280000AF07F1180328220021184603F022F918
:101738003B1D00221A605A609A60DA601A61012320
:10174800BB614FF48033FB6100233B620123BB6222
:1017580002237B634FF48033BB634FF4E013FB63D6
:1017680007F11803184600F04FFE0346002B01D07E
:1017780000F070F80F237B600223BB600023FB603E
:101788004FF480633B6100237B613B1D02211846B7
:1017980001F0BCF80346002B01D000F05BF800BF55
:1017A8004037BD4680BD000080B584B000AF00233F
:1017B800FB6040E00023BB6016E0FB685B00234A47
:1017C800D35C1A46BB6802FA03F3FB7197F907303A
:1017D800002B03DA2A2003F033F902E0202003F07B
:1017E8002FF9BB680133BB60BB68072BE5DD00231D
:1017F800BB6017E0FB685B000133144AD35C1A46F0
:10180800BB6802FA03F3FB7197F90730002B03DA80
:101818002A2003F015F902E0202003F011F9BB6833
:101828000133BB60BB68072BE4DD0A2003F008F92D
:10183800FB680133FB60FB680F2BBBDD044803F03A
:1018480055F900BF1037BD4680BD00BF000000201D
:10185800C4C7000880B400AF72B600BFFEE700003E
:1018680080B500AF174B184A1A60164B4FF48272B6
:101878005A60144B00229A60124B0022DA60114B16
:1018880002221A610F4B01225A610E4B4FF480223B
:101898009A610C4B0822DA610A4B00221A62094B42
:1018A80000225A62074B00229A62064B0A22DA6229
:1018B800044801F0B9F90346002B01D0FFF7CAFF2D
:1018C80000BF80BD900A00200030014080B588B07C
:1018D80000AF786007F1100300221A605A609A601E
:1018E800DA607B681B681B4A93422FD11A4B9B69AD
:1018F800194A43F480539361174B9B6903F480534F
:10190800FB60FB68144B9B69134A43F00403936123
:10191800114B9B6903F00403BB60BB68B0233B61B8
:1019280002237B610323FB6107F1100319460B486F
:1019380000F0A6FB40233B6100237B610023BB61D1
:1019480007F110031946054800F09AFB00BF20373D
:10195800BD4680BD00300140001002400008014033
:1019680080B485B000AF154B9B69144A43F001035E
:101978009361124B9B6903F00103BB60BB680F4B7B
:10198800DB690E4A43F08053D3610C4BDB6903F0EB
:1019980080537B607B680A4B5B68FB60FB6823F0C5
:1019A800E063FB60FB6843F00073FB60044AFB687C
:1019B800536000BF1437BD4680BC7047001002401A
:1019C8000000014080B400AFFEE780B400AFFEE73E
:1019D80080B400AFFEE780B400AFFEE780B400AF8C
:1019E800FEE780B400AF00BFBD4680BC704780B43E
:1019F80000AF00BFBD4680BC704780B400AF00BFD9
:101A0800BD4680BC704780B500AF00F015FA00BF36
:101A180080BD80B400AF01231846BD4680BC704726
:101A280080B582B000AF7860396002F079FF034674
:101A380016221A604FF0FF3318460837BD4680BD9E
:101A480080B582B000AF78604FF0FF317868FFF75B
:101A5800E7FFFEE780B586B000AFF860B9607A604E
:101A680000237B610AE0AFF300800146BB685A1C83
:101A7800BA60CAB21A707B6901337B617A697B6884
:101A88009A42F0DB7B6818461837BD4680BD80B5A2
:101A980086B000AFF860B9607A6000237B6109E026
:101AA800BB685A1CBA601B781846AFF300807B6984
:101AB80001337B617A697B689A42F1DB7B6818465F
:101AC8001837BD4680BD80B483B000AF78604FF052
:101AD800FF3318460C37BD4680BC704780B483B0CE
:101AE80000AF786039603B684FF400525A600023B9
:101AF80018460C37BD4680BC704780B483B000AF31
:101B08007860012318460C37BD4680BC704780B406
:101B180085B000AFF860B9607A60002318461437C2
:101B2800BD4680BC7047000080B586B000AF7860C5
:101B3800144A154BD31A7B617B693B61134B1B68B5
:101B4800002B02D1114B124A1A60104B1A687B689D
:101B580013443A699A4207D202F0E2FE03460C2285
:101B68001A604FF0FF3309E0084B1B68FB60074B16
:101B78001A687B681344054A1360FB6818461837CF
:101B8800BD4680BD00C0002000040000E80A002017
:101B9800800C002080B400AF00BFBD4680BC7047F9
:101BA80080B586B000AF07F1080300221A605A60BA
:101BB8009A60DA603B4600221A605A601D4B4FF06B
:101BC80080421A601B4B47225A601A4B00229A60C7
:101BD800184B4FF6FF72DA60164B00221A61154B4C
:101BE80000229A61134801F0A3F80346002B01D0A4
:101BF800FFF730FE4FF48053BB6007F10803194626
:101C08000C4801F063F90346002B01D0FFF722FED0
:101C180000233B6000237B603B461946054801F0E2
:101C28002DFB0346002B01D0FFF714FE00BF183729
:101C3800BD4680BDEC0A002080B485B000AF786056
:101C48007B681B68B3F1804F0BD1084BDB69074AEF
:101C580043F00103D361054BDB6903F00103FB602B
:101C6800FB6800BF1437BD4680BC704700100240B7
:101C780080B500AF124B134A1A60114B4FF4E13292
:101C88005A600F4B00229A600D4B0022DA600C4B11
:101C980000221A610A4B0C225A61094B00229A61F0
:101CA800074B0022DA6100220021054801F0A2FB5F
:101CB8000346002B01D0FFF7CDFD00BF80BD00BF5C
:101CC800340B00200038014080B588B000AF786040
:101CD80007F1100300221A605A609A60DA607B6884
:101CE8001B681C4A934231D11B4B9B691A4A43F427
:101CF80080439361184B9B6903F48043FB60FB6846
:101D0800154B9B69144A43F004039361124B9B697A
:101D180003F00403BB60BB684FF400733B6102230C
:101D28007B610323FB6107F1100319460B4800F0A0
:101D3800A7F94FF480633B6100237B610023BB61FB
:101D480007F110031946054800F09AF900BF20373B
:101D5800BD4680BD00380140001002400008014027
:101D6800FFF718FF0B480C490C4A002302E0D4582F
:101D7800C4500433C4188C42F9D3094A094C0023CF
:101D880001E013600432A242FBD302F0CFFDFFF75B
:101D980049FC704700000020100A00207CD200088F
:101DA800100A0020800C0020FEE7000080B500AF7C
:101DB800084B1B68074A43F010031360032000F028
:101DC8002BF90F2000F008F8FFF7CAFD002318468A
:101DD80080BD00BF0020024080B582B000AF7860AF
:101DE800124B1A68124B1B7819464FF47A73B3FBDF
:101DF800F1F3B2FBF3F3184600F035F90346002B74
:101E080001D001230EE07B680F2B0AD800227968E5
:101E18004FF0FF3000F00BF9064A7B68136000238F
:101E280000E0012318460837BD4680BD2000002089
:101E3800280000202400002080B400AF054B1B7848
:101E48001A46054B1B681344034A136000BFBD467E
:101E580080BC7047280000207C0B002080B400AFB5
:101E6800024B1B681846BD4680BC70477C0B00209F
:101E780080B584B000AF7860FFF7F0FFB8607B688A
:101E8800FB60FB68B3F1FF3F05D00A4B1B781A468D
:101E9800FB681344FB6000BFFFF7E0FF0246BB6826
:101EA800D31AFA689A42F7D800BF00BF1037BD4668
:101EB80080BD00BF2800002080B485B000AF7860E6
:101EC8007B6803F00703FB600C4BDB68BB60BA68F8
:101ED8004FF6FF031340BB60FB681A02BB6813434D
:101EE80043F0BF6343F40033BB60044ABB68D3606C
:101EF80000BF1437BD4680BC704700BF00ED00E04E
:101F080080B400AF044BDB681B0A03F007031846D4
:101F1800BD4680BC704700BF00ED00E080B483B0D0
:101F280000AF03463960FB7197F90730002B0ADBD5
:101F38003B68DAB20C4997F907301201D2B20B4468
:101F480083F800230AE03B68DAB20849FB7903F01A
:101F58000F03043B1201D2B20B441A7600BF0C37B0
:101F6800BD4680BC704700BF00E100E000ED00E026
:101F780080B489B000AFF860B9607A60FB6803F09C
:101F88000703FB61FB69C3F10703042B28BF042384
:101F9800BB61FB690433062B02D9FB69033B00E0F4
:101FA80000237B614FF0FF32BB6902FA03F3DA4387
:101FB800BB681A407B699A404FF0FF317B6901FA90
:101FC80003F3D9437B680B40134318462437BD46B7
:101FD80080BC704780B582B000AF78607B68013BF9
:101FE800B3F1807F01D301230FE00A4A7B68013BEC
:101FF80053600F214FF0FF30FFF790FF054B002291
:102008009A60044B07221A60002318460837BD4619
:1020180080BD00BF10E000E080B582B000AF7860FE
:102028007868FFF749FF00BF0837BD4680BD80B517
:1020380086B000AF0346B9607A60FB7300237B610A
:10204800FFF75EFF78617A68B9687869FFF790FFF3
:10205800024697F90F3011461846FFF75FFF00BF99
:102068001837BD4680BD80B582B000AF786078680B
:10207800FFF7B0FF034618460837BD4680BD00008D
:1020880080B48BB000AF7860396000237B62002396
:102098003B6279E101227B6A02FA03F3FB613B6848
:1020A8001B68FA691340BB61BA69FB699A4240F040
:1020B80068813B685B68964A93425ED0944A934233
:1020C80075D8944A934258D0924A93426FD8924A0C
:1020D800934252D0904A934269D8904A93424CD046
:1020E8008E4A934263D88E4A934246D08C4A934292
:1020F8005DD8122B2AD8122B59D801A252F823F0F6
:10210800832100085D2100086F210008B121000823
:10211800B7210008B7210008B7210008B721000837
:10212800B7210008B7210008B7210008B721000827
:10213800B7210008B7210008B7210008B721000817
:10214800B72100086521000879210008754A9342E3
:1021580013D02CE03B68DB683B6229E03B68DB6816
:1021680004333B6224E03B68DB6808333B621FE0D2
:102178003B68DB680C333B621AE03B689B68002BCA
:1021880002D104233B6213E03B689B68012B05D115
:1021980008233B627B68FA691A6109E008233B62FD
:1021A8007B68FA695A6103E000233B6200E000BFE4
:1021B800BB69FF2B01D87B6801E07B6804337B6136
:1021C800BB69FF2B02D87B6A9B0002E07B6A083B55
:1021D8009B003B617B691A680F213B6901FA03F395
:1021E800DB431A40396A3B6901FA03F31A437B69F6
:1021F8001A603B685B6803F08053002B00F0C180D5
:10220800494B9B69484A43F001039361464B9B69DC
:1022180003F00103BB60BB68444A7B6A9B08023336
:1022280052F82330FB607B6A03F003039B000F2204
:1022380002FA03F3DB43FA681340FB607B683C4A0D
:1022480093421FD07B683B4A934219D07B683A4A35
:10225800934213D07B68394A93420DD07B68384A41
:10226800934207D07B68374A934201D105230AE09D
:10227800062308E0042306E0032304E0022302E027
:10228800012300E000237A6A02F0030292009340DF
:10229800FA681343FB6025497B6A9B080233FA6896
:1022A80041F823203B685B6803F48013002B06D0B9
:1022B800254B9A682449BB6913438B6006E0224B7F
:1022C8009A68BB69DB43204913408B603B685B68B5
:1022D80003F40013002B06D01B4BDA681A49BB69BC
:1022E8001343CB6006E0184BDA68BB69DB43164939
:1022F8001340CB603B685B6803F40033002B25D0A8
:10230800114B5A681049BB6913434B6025E000BF65
:1023180000003210000031100000221000002110CF
:1023280000001210000011100010024000000140CF
:1023380000080140000C0140001001400014014059
:1023480000180140001C014000040140154B5A6868
:10235800BB69DB43134913404B603B685B6803F47C
:102368008033002B06D00F4B1A680E49BB69134304
:102378000B6006E00B4B1A68BB69DB430949134045
:102388000B607B6A01337B623B681A687B6A22FABE
:1023980003F3002B7FF47EAE00BF00BF2C37BD4691
:1023A80080BC70470004014080B485B000AF7860FD
:1023B8000B467B807B689A687B881340002B02D091
:1023C8000123FB7301E00023FB73FB7B18461437E2
:1023D800BD4680BC704780B483B000AF78600B46C0
:1023E8007B8013467B707B78002B03D07A887B68D0
:1023F8001A6103E07B881A047B681A6100BF0C37F6
:10240800BD4680BC7047000080B586B000AF7860DC
:102418007B68002B01D1012372E27B681B6803F003
:102428000103002B00F08780924B5B6803F00C03DC
:10243800042B0CD08F4B5B6803F00C03082B12D1D4
:102448008C4B5B6803F48033B3F5803F0BD1894B29
:102458001B6803F40033002B6CD07B685B68002B8F
:1024680068D101234CE27B685B68B3F5803F06D1F5
:10247800804B1B687F4A43F4803313602EE07B68EF
:102488005B68002B0CD17B4B1B687A4A23F48033A2
:102498001360784B1B68774A23F4802313601DE090
:1024A8007B685B68B3F5A02F0CD1724B1B68714A2F
:1024B80043F4802313606F4B1B686E4A43F48033E8
:1024C80013600BE06B4B1B686A4A23F4803313607C
:1024D800684B1B68674A23F4802313607B685B683A
:1024E800002B13D0FFF7BAFC386108E0FFF7B6FC01
:1024F80002463B69D31A642B01D9032300E25D4BE2
:102508001B6803F40033002BF0D014E0FFF7A6FC9F
:10251800386108E0FFF7A2FC02463B69D31A642B36
:1025280001D90323ECE1534B1B6803F40033002B60
:10253800F0D100E000BF7B681B6803F00203002BAA
:1025480063D04C4B5B6803F00C03002B0BD0494B5A
:102558005B6803F00C03082B1CD1464B5B6803F443
:102568008033002B16D1434B1B6803F00203002B6A
:1025780005D07B681B69012B01D00123C0E13D4BCD
:102588001B6823F0F8027B685B69DB003949134359
:102598000B603AE07B681B69002B20D0364B012288
:1025A8001A60FFF75BFC386108E0FFF757FC02464A
:1025B8003B69D31A022B01D90323A1E12D4B1B68D8
:1025C80003F00203002BF0D02A4B1B6823F0F8021B
:1025D8007B685B69DB00274913430B6015E0264BDA
:1025E80000221A60FFF73AFC386108E0FFF736FC72
:1025F80002463B69D31A022B01D9032380E11D4B04
:102608001B6803F00203002BF0D17B681B6803F002
:102618000803002B3AD07B689B69002B19D0174B15
:1026280001221A60FFF71AFC386108E0FFF716FC70
:1026380002463B69D31A022B01D9032360E10D4BF3
:102648005B6A03F00203002BF0D0012000F0CEFA01
:102658001CE00A4B00221A60FFF700FC38610FE00B
:10266800FFF7FCFB02463B69D31A022B08D9032368
:1026780046E100BF0010024000004242800442428E
:10268800924B5B6A03F00203002BE9D17B681B685D
:1026980003F00403002B00F0A6800023FB758B4B8E
:1026A800DB6903F08053002B0DD1884BDB69874A27
:1026B80043F08053D361854BDB6903F08053BB60E3
:1026C800BB680123FB75824B1B6803F48073002BE6
:1026D80018D17F4B1B687E4A43F480731360FFF761
:1026E800BDFB386108E0FFF7B9FB02463B69D31A26
:1026F800642B01D9032303E1754B1B6803F4807332
:10270800002BF0D07B68DB68012B06D16F4B1B6A6E
:102718006E4A43F0010313622DE07B68DB68002BEF
:102728000CD16A4B1B6A694A23F001031362674B99
:102738001B6A664A23F0040313621CE07B68DB68AB
:10274800052B0CD1614B1B6A604A43F004031362EA
:102758005E4B1B6A5D4A43F0010313620BE05B4B5F
:102768001B6A5A4A23F001031362584B1B6A574AE3
:1027780023F0040313627B68DB68002B15D0FFF796
:102788006DFB38610AE0FFF769FB02463B69D31A23
:1027980041F28832934201D90323B1E04B4B1B6AC3
:1027A80003F00203002BEED014E0FFF757FB38616B
:1027B8000AE0FFF753FB02463B69D31A41F288321D
:1027C800934201D903239BE0404B1B6A03F00203A9
:1027D800002BEED1FB7D012B05D13C4BDB693B4A3D
:1027E80023F08053D3617B68DB69002B00F087807E
:1027F800364B5B6803F00C03082B61D07B68DB6900
:10280800022B46D1334B00221A60FFF727FB3861B1
:1028180008E0FFF723FB02463B69D31A022B01D9D4
:1028280003236DE0294B1B6803F00073002BF0D1E4
:102838007B681B6AB3F5803F08D1244B5B6823F49F
:1028480000327B689B68214913434B601F4B5B68D0
:1028580023F474127B68196A7B685B6A0B431B4913
:1028680013434B601B4B01221A60FFF7F7FA3861DC
:1028780008E0FFF7F3FA02463B69D31A022B01D9A5
:1028880003233DE0114B1B6803F00073002BF0D0CD
:1028980035E0104B00221A60FFF7E0FA386108E0D3
:1028A800FFF7DCFA02463B69D31A022B01D903234E
:1028B80026E0064B1B6803F00073002BF0D11EE0E6
:1028C8007B68DB69012B07D1012319E00010024066
:1028D80000700040600042420B4B5B68FB60FB6885
:1028E80003F480327B681B6A9A4206D1FB6803F4C2
:1028F80070127B685B6A9A4201D0012300E00023D2
:1029080018461837BD4680BD0010024080B584B017
:1029180000AF786039607B68002B01D10123D0E0DB
:102928006A4B1B6803F007033A689A4210D9674B51
:102938001B6823F0070265493B6813430B60634B30
:102948001B6803F007033A689A4201D00123B8E0F4
:102958007B681B6803F00203002B20D07B681B6890
:1029680003F00403002B05D0594B5B68584A43F425
:10297800E06353607B681B6803F00803002B05D0F5
:10298800534B5B68524A43F460535360504B5B6847
:1029980023F0F0027B689B684D4913434B607B68CA
:1029A8001B6803F00103002B40D07B685B68012B98
:1029B80007D1474B1B6803F40033002B15D10123C3
:1029C8007FE07B685B68022B07D1414B1B6803F0F3
:1029D8000073002B09D1012373E03D4B1B6803F002
:1029E8000203002B01D101236BE0394B5B6823F014
:1029F80003027B685B68364913434B60FFF72EFA86
:102A0800F8600AE0FFF72AFA0246FB68D31A41F297
:102A18008832934201D9032353E02D4B5B6803F0BE
:102A28000C027B685B689B009A42EBD1274B1B68C2
:102A380003F007033A689A4210D2244B1B6823F02C
:102A4800070222493B6813430B60204B1B6803F0C5
:102A580007033A689A4201D0012332E07B681B6879
:102A680003F00403002B08D0194B5B6823F4E062E1
:102A78007B68DB68164913434B607B681B6803F06F
:102A88000803002B09D0124B5B6823F460527B6863
:102A98001B69DB000E4913434B6000F021F8024626
:102AA8000B4B5B681B0903F00F030A49CB5C22FA46
:102AB80003F3094A1360094B1B681846FFF78CF9A2
:102AC800002318461037BD4680BD00BF00200240D5
:102AD800001002402CC8000820000020240000201C
:102AE80080B487B000AF0023FB600023BB600023E5
:102AF8007B6100237B6000233B611E4B5B68FB60AE
:102B0800FB6803F00C03042B02D0082B03D027E04A
:102B1800194B3B6127E0FB689B0C03F00F03174A36
:102B2800D35C7B60FB6803F48033002B10D0114B1F
:102B38005B685B0C03F00103114AD35CBB607B68E4
:102B48000D4A03FB02F2BB68B2FBF3F37B6104E0BE
:102B58007B680C4A02FB03F37B617B693B6102E003
:102B6800054B3B6100BF3B6918461C37BD4680BC1E
:102B7800704700BF0010024000127A0044C80008E5
:102B880054C8000800093D0080B400AF024B1B6820
:102B98001846BD4680BC70472000002080B500AFB5
:102BA800FFF7F2FF0246054B5B681B0A03F00703B9
:102BB8000349CB5C22FA03F3184680BD001002409B
:102BC8003CC8000880B500AFFFF7DEFF0246054BA2
:102BD8005B68DB0A03F007030349CB5C22FA03F3C3
:102BE800184680BD001002403CC8000880B485B07B
:102BF80000AF78600A4B1B680A4AA2FB03235B0AF2
:102C08007A6802FB03F3FB6000BFFB685A1EFA6098
:102C1800002BF9D100BF00BF1437BD4680BC7047F8
:102C280020000020D34D621080B582B000AF7860DC
:102C38007B68002B01D1012376E07B685B6A002B5F
:102C480008D17B685B68B3F5827F09D07B68002276
:102C5800DA6105E07B6800221A617B6800225A610C
:102C68007B6800229A627B6893F85130DBB2002BB4
:102C780006D17B68002283F850207868FEF726FE8C
:102C88007B68022283F851207B681B681A687B687E
:102C98001B6822F040021A607B685B6803F482724A
:102CA8007B689B6803F404431A437B68DB6803F47E
:102CB80000631A437B681B6903F002031A437B68AD
:102CC8005B6903F001031A437B689B6903F4007393
:102CD8001A437B68DB6903F038031A437B681B6A75
:102CE80003F0800342EA03017B689B6A03F4005205
:102CF8007B681B680A431A607B689B691A0C7B68AF
:102D08001B6802F004025A607B681B68DA697B68FA
:102D18001B6822F40062DA617B6800225A657B68CE
:102D2800012283F85120002318460837BD4680BD8C
:102D380080B582B000AF78607B68002B01D1012399
:102D480041E07B6893F83D30DBB2002B06D17B680D
:102D5800002283F83C207868FEF76EFF7B68022229
:102D680083F83D207B681A687B680433194610464F
:102D780000F074F97B68012283F846207B68012201
:102D880083F83E207B68012283F83F207B6801227C
:102D980083F840207B68012283F841207B68012268
:102DA80083F842207B68012283F843207B68012254
:102DB80083F844207B68012283F845207B68012240
:102DC80083F83D20002318460837BD4680BD000023
:102DD80080B485B000AF78607B6893F83D30DBB293
:102DE800012B01D001233CE07B68022283F83D20BF
:102DF8007B681B681D4A934218D07B681B681C4A75
:102E0800934213D07B681B68B3F1804F0ED07B6868
:102E18001B68184A934209D07B681B68164A93427C
:102E280004D07B681B68154A934211D17B681B68E4
:102E38009B6803F00703FB60FB68062B10D07B68D8
:102E48001B681A687B681B6842F001021A6007E079
:102E58007B681B681A687B681B6842F001021A606D
:102E6800002318461437BD4680BC7047002C01402B
:102E7800003401400004004000080040000C0040FD
:102E880080B483B000AF78607B681B681A6A41F22F
:102E980011131340002B0FD17B681B681A6A40F28C
:102EA80044431340002B07D17B681B681A687B6872
:102EB8001B6822F001021A607B68012283F83D201A
:102EC800002318460C37BD4680BC704780B584B0D7
:102ED80000AF786039600023FB737B6893F83C305F
:102EE800012B01D10223B4E07B68012283F83C2046
:102EF8007B68022283F83D207B681B689B68BB6067
:102F0800BB6823F07703BB60BB6823F47F43BB60D7
:102F18007B681B68BA689A603B681B68B3F5005FFA
:102F28003ED0B3F5005F00F28780B3F5805F00F014
:102F38008680B3F5805F7FD8702B1AD0702B7BD832
:102F4800602B50D0602B77D8502B3CD0502B73D8A7
:102F5800402B58D0402B6FD8302B64D0302B6BD8F7
:102F6800202B60D0202B67D8002B5CD0102B5AD098
:102F780062E07B6818683B6899683B685A683B68F8
:102F8800DB6800F05CF97B681B689B68BB60BB680A
:102F980043F07703BB607B681B68BA689A604FE0B0
:102FA8007B6818683B6899683B685A683B68DB68C7
:102FB80000F045F97B681B689A687B681B6842F4D7
:102FC80080429A603CE07B6818683B6859683B68B7
:102FD800DB681A4600F0BCF87B681B68502118466D
:102FE80000F013F92CE07B6818683B6859683B6867
:102FF800DB681A4600F0DAF87B681B68602118461F
:1030080000F003F91CE07B6818683B6859683B6866
:10301800DB681A4600F09CF87B681B68402118465C
:1030280000F0F3F80CE07B681A683B681B681946E7
:10303800104600F0EAF803E00123FB7300E000BF4C
:103048007B68012283F83D207B68002283F83C20BE
:10305800FB7B18461037BD4680BD000080B485B0A4
:1030680000AF786039607B681B68FB607B68334A17
:10307800934213D07B68324A93420FD07B68B3F1F6
:10308800804F0BD07B682F4A934207D07B682E4A2B
:10309800934203D07B682D4A934208D1FB6823F002
:1030A8007003FB603B685B68FA681343FB607B68EE
:1030B800224A934213D07B68214A93420FD07B68FF
:1030C800B3F1804F0BD07B681E4A934207D07B68D0
:1030D8001D4A934203D07B681C4A934208D1FB687F
:1030E80023F44073FB603B68DB68FA681343FB60BA
:1030F800FB6823F080023B685B691343FB607B68D5
:10310800FA681A603B689A687B68DA623B681A68F2
:103118007B689A627B68094A934203D07B68084AB5
:10312800934203D13B681A697B681A637B68012262
:103138005A6100BF1437BD4680BC7047002C01405F
:10314800003401400004004000080040000C00402A
:1031580080B487B000AFF860B9607A60FB681B6A1A
:103168007B61FB681B6A23F00102FB681A62FB683B
:103178009B693B613B6923F0F0033B617B681B0162
:103188003A6913433B617B6923F00A037B617A69DF
:10319800BB6813437B61FB683A699A61FB687A698B
:1031A8001A6200BF1C37BD4680BC704780B487B028
:1031B80000AFF860B9607A60FB681B6A7B61FB68E6
:1031C8001B6A23F01002FB681A62FB689B693B616B
:1031D8003B6923F470433B617B681B033A691343E3
:1031E8003B617B6923F0A0037B61BB681B017A69A3
:1031F80013437B61FB683A699A61FB687A691A62D2
:1032080000BF1C37BD4680BC704780B485B000AF96
:10321800786039607B689B68FB60FB6823F070030B
:10322800FB603A68FB68134343F00703FB607B6865
:10323800FA689A6000BF1437BD4680BC704780B4F6
:1032480087B000AFF860B9607A603B60FB689B6844
:103258007B617B6923F47F437B613B681A027B684F
:103268001A43BB6813437A6913437B61FB687A6925
:103278009A6000BF1C37BD4680BC704780B485B0DB
:1032880000AF786039607B6893F83C30012B01D13E
:10329800022350E07B68012283F83C207B680222ED
:1032A80083F83D207B681B685B68FB607B681B6854
:1032B8009B68BB60FB6823F07003FB603B681B687E
:1032C800FA681343FB607B681B68FA685A607B687E
:1032D8001B681B4A934218D07B681B68194A9342A3
:1032E80013D07B681B68B3F1804F0ED07B681B68D6
:1032F800154A934209D07B681B68144A934204D04C
:103308007B681B68124A93420CD1BB6823F0800388
:10331800BB603B685B68BA681343BB607B681B682B
:10332800BA689A607B68012283F83D207B68002296
:1033380083F83C20002318461437BD4680BC7047EC
:10334800002C014000340140000400400008004007
:10335800000C004080B582B000AF78607B68002B1D
:1033680001D1012342E07B6893F84130DBB2002BA6
:1033780006D17B68002283F840207868FEF7A4FC19
:103388007B68242283F841207B681B68DA687B68A5
:103398001B6822F40052DA60786800F09FF87B68B6
:1033A8001B681A697B681B6822F490421A617B6863
:1033B8001B685A697B681B6822F02A025A617B687D
:1033C8001B68DA687B681B6842F40052DA607B6825
:1033D80000225A647B68202283F841207B682022DF
:1033E80083F842207B6800225A6300231846083776
:1033F800BD4680BD80B584B000AFF8600B467A60EA
:10340800FB72FB68002B01D1012362E0FB6893F893
:103418004130DBB2002B06D1FB68002283F8402044
:10342800F868FEF751FCFB68242283F84120FB680A
:103438001B68DA68FB681B6822F40052DA60F868D7
:1034480000F04CF8FB681B681A69FB681B6822F4DB
:1034580090421A61FB681B685A69FB681B6822F076
:103468002A025A61FB681B681A69FB681B6822F00C
:103478000F021A61FB681B681969FA7AFB681B68F6
:103488000A431A61FB681B68DA68FB681B6822F448
:103498000062DA60FB681B68D968FB681B687A6899
:1034A8000A43DA60FB681B68DA68FB681B6842F449
:1034B8000052DA60FB6800225A64FB68202283F815
:1034C8004120FB68202283F84220FB6800225A63CF
:1034D800002318461037BD4680BD000080B584B073
:1034E80000AF78607B681B681B6923F440517B68D8
:1034F800DA687B681B680A431A617B689A687B688C
:103508001B691A437B685B691343BB607B681B6854
:10351800DB6823F4B05323F00C037A681268B968A7
:103528000B43D3607B681B685B6923F440717B683D
:103538009A697B681B680A435A617B681B682C4A36
:10354800934203D1FFF73EFBF86002E0FFF726FB4A
:10355800F860FA6813469B0013449A001A447B6883
:103568005B689B00B2FBF3F3224AA2FB03235B09CF
:103578001901FA6813469B0013449A001A447B68A1
:103588005B689B00B2FBF3F21A4BA3FB02035B09D7
:10359800642000FB03F3D31A1B013233154AA2FB44
:1035A80003235B0903F0F0031944FA6813469B00F0
:1035B80013449A001A447B685B689B00B2FBF3F2E1
:1035C8000C4BA3FB02035B09642000FB03F3D31A33
:1035D8001B013233074AA2FB03235B0903F00F02E6
:1035E8007B681B680A449A6000BF1037BD4680BDDF
:1035F800003801401F85EB5180B500AF00F0B6F8E8
:1036080003463F4A13603E4B1A683E4B1B689A427A
:1036180074D33B4B1A683B4B1B68D31A384A136068
:10362800374B1B681846FCF7B1FE03463649184667
:10363800FCF7B8FF03461846FDF7C6F80346304ABC
:1036480013602F4B1B681846FCF7A0FE02462F4B51
:103658009B6819461046FCF7E7FD03462C491846B7
:10366800FDF7A8F80346002B13D1254B1B68184615
:10367800FCF78CFE0246254B9B6819461046FCF762
:10368800D3FD034623491846FDF776F80346002B79
:1036980007D01B4B1B681846FCF778FE03461B4AED
:1036A8009360174B1B681846FCF770FE03461946D3
:1036B800164800F0C1F803461846FDF785F803469A
:1036C8000F4A13600E4B1B68134A1360124B1B689A
:1036D8005900124BA3FB0123DA0813469B0013443D
:1036E8005B00CA1AD2B20E4B1A700B4B1B685B00F8
:1036F8000A4AA2FB0323DB08074A136000BF80BD08
:103708008C0B0020880B00200000AC422C0000200D
:1037180000004040000040C0800B0020CDCCCCCC45
:10372800840B002080B584B000AF78607B689AB2C3
:103738006FF005039B1AFB810B4B1B68FA895A62D1
:103748000948FFF745FB03E0074B1B685B6AFB81F1
:10375800FB894FF6F9729342F6D90348FFF790FBBD
:1037680000BF1037BD4680BDEC0A002080B582B08E
:1037780000AF00233B60012204212E48FEF72BFEF8
:10378800002208212B48FEF726FE00BF0421294805
:10379800FEF70AFE0346012BF8D00120FFF7C2FF0F
:1037A8000023FB712AE0012208212248FEF713FEBC
:1037B8000120FFF7B7FF002208211E48FEF70BFE85
:1037C80004211C48FEF7F0FD0346002B02D13B689C
:1037D8005B003B6004211748FEF7E6FD0346012B1A
:1037E80006D13B685B003B603B6843F001033B60EC
:1037F8000120FFF797FFFB790133FB71FB79172B4A
:10380800D1D9012208210B48FEF7E5FD3B6883F476
:1038180000033B600120FFF785FF002208210548CF
:10382800FEF7D9FD0120FFF77DFF3B6818460837F2
:10383800BD4680BD00080140B0B582B000AF7860D9
:1038480039607B681A687B681B6919461046FCF763
:10385800EDFC03461A467B685A607B685C687B68A7
:103868005A687B685B6919461046FCF7DFFC03461B
:1038780019462046FCF796FE03461A467B68DA602E
:103888007B689C687B68DD687B689B68194638683C
:10389800FCF7CAFC034619462846FCF7CFFD034649
:1038A80019462046FCF7C2FC03461A467B689A6014
:1038B8007B68DB6819464FF07E50FCF7B5FC034681
:1038C8001A467B685B6819461046FCF7B7FD034645
:1038D8001A467B681A607B689B6818460837BD469D
:1038E800B0BD000080B500AF0D4B0E4A1A600C4BFE
:1038F8004FF4E1325A600A4B00229A60084B0022CA
:10390800DA60074B00221A61054B00229A61044BCA
:103918000C225A610248FFF71DFD00BF80BD00BFA1
:10392800900B00200038014080B483B000AF78606D
:1039380002E07B68013B7B607B68002BF9D100BF0C
:1039480000BF0C37BD4680BC7047000080B483B010
:1039580000AF0346FB800D4B10225A610B4B8022AF
:103968005A610A4B20221A61094AFB88D360074B27
:1039780040225A61054B40221A61044B10221A61F9
:1039880000BF0C37BD4680BC704700BF0010014027
:10399800000C014080B483B000AF0346FB800D4BA0
:1039A80010225A610B4B80221A610A4B20221A619D
:1039B800094AFB88D360074B40225A61054B4022D5
:1039C8001A61044B10221A6100BF0C37BD4680BC37
:1039D800704700BF00100140000C014080B483B064
:1039E80000AF194B4FF088321A60174B4FF08832EE
:1039F8005A60154B0022DA60144B80221A61134B6F
:103A080040221A61114B10225A61104B20225A6130
:103A18000D4B9B68FB800D4B20221A610B4B10222B
:103A28001A61094B4FF033321A60074B4FF03332AB
:103A38005A60054B4FF6FF72DA60FB8818460C3760
:103A4800BD4680BC704700BF000C0140001001401B
:103A580080B58AB000AF3C4B9B693B4A43F01003EA
:103A68009361394B9B6903F010033B613B69364B0B
:103A78009B69354A43F020039361334B9B6903F0FC
:103A88002003FB60FB68304B9B692F4A43F0080317
:103A980093612D4B9B6903F00803BB60BB682A4BFD
:103AA8009B69294A43F001039361274B9B6903F003
:103AB80001037B607B68254B5B687B627B6A23F034
:103AC800E0637B627B6A43F000737B621F4A7B6A18
:103AD80053600123BB610123FB6103233B624FF663
:103AE800FF737B6107F1140319461948FEF7C8FAFA
:103AF80020237B6107F1140319461648FEF7C0FA24
:103B080040237B6107F1140319461248FEF7B8FAFF
:103B180010237B6107F1140319460E48FEF7B0FA2B
:103B280080237B6107F1140319460A48FEF7A8FAB7
:103B380004237B6107F1140319460748FEF7A0FA2E
:103B480000BF2837BD4680BD00100240000001407C
:103B5800000C0140001001400014014080B500AF86
:103B680000F0A0FA03461A46AE4B1A80AD4B1B88EC
:103B780049F24132934240F059814FF6FF70FFF706
:103B8800D3FECF20FFF7E2FE0020FFF703FF8120DE
:103B9800FFF700FF3020FFF7FDFE4FF6FF70FFF73D
:103BA800C3FEED20FFF7D2FE6420FFF7F3FE0320EB
:103BB800FFF7F0FE1220FFF7EDFE8120FFF7EAFE87
:103BC8004FF6FF70FFF7B0FEE820FFF7BFFE852035
:103BD800FFF7E0FE1020FFF7DDFE7820FFF7DAFEA2
:103BE8004FF6FF70FFF7A0FECB20FFF7AFFE39209E
:103BF800FFF7D0FE2C20FFF7CDFE0020FFF7CAFE0E
:103C08003420FFF7C7FE0320FFF7C4FE4FF6FF700E
:103C1800FFF78AFEF720FFF799FE2020FFF7BAFE8C
:103C28004FF6FF70FFF780FEEA20FFF78FFE0020B7
:103C3800FFF7B0FE0020FFF7ADFE4FF6FF70FFF76D
:103C480073FEB120FFF782FE0020FFF7A3FE1B20C2
:103C5800FFF7A0FE4FF6FF70FFF766FEB620FFF7EE
:103C680075FE0A20FFF796FEA220FFF793FE4FF697
:103C7800FF70FFF759FEC020FFF768FE3520FFF7F9
:103C880089FE4FF6FF70FFF74FFEC120FFF75EFE7B
:103C98001120FFF77FFEC520FFF758FE4520FFF7EC
:103CA80079FE4520FFF776FEC720FFF74FFEA220DA
:103CB800FFF770FEF220FFF749FE0020FFF76AFECB
:103CC8002620FFF743FE0120FFF764FE4FF6FF7042
:103CD800FFF72AFEE020FFF739FE0F20FFF75AFE14
:103CE8002620FFF757FE2420FFF754FE0B20FFF78E
:103CF80051FE0E20FFF74EFE0920FFF74BFE542021
:103D0800FFF748FEA820FFF745FE4620FFF742FED2
:103D18000C20FFF73FFE1720FFF73CFE0920FFF7B6
:103D280039FE0F20FFF736FE0720FFF733FE00208D
:103D3800FFF730FEE120FFF709FE0020FFF72AFE1B
:103D48001920FFF727FE1B20FFF724FE0420FFF7AA
:103D580021FE1020FFF71EFE0720FFF71BFE2A207A
:103D6800FFF718FE4720FFF715FE3920FFF712FE70
:103D78000320FFF70FFE0620FFF70CFE0620FFF7D3
:103D880009FE3020FFF706FE3820FFF703FE0F205C
:103D9800FFF700FE4FF6FF70FFF7C6FD3620FFF76E
:103DA800D5FDC820FFF7F6FD4FF6FF70FFF7BCFD05
:103DB8002A20FFF7CBFD0020FFF7ECFD0020FFF7DE
:103DC800E9FD0020FFF7E6FDEF20FFF7E3FD4FF6E2
:103DD800FF70FFF7A9FD2B20FFF7B8FD0020FFF7C4
:103DE800D9FD0020FFF7D6FD0120FFF7D3FD3F20C6
:103DF800FFF7D0FD4FF6FF70FFF796FD3A20FFF76B
:103E0800A5FD5520FFF7C6FD1120FFF79FFD0648C9
:103E1800FFF78AFD4FF6FF70FFF786FD2920FFF7B1
:103E280095FD38E1D80B0020FCBF02009B4B1B8896
:103E380048F25252934240F02E814FF6FF70FFF73E
:103E480073FDCF20FFF782FD0020FFF7A3FDC120FF
:103E5800FFF7A0FD3020FFF79DFD4FF6FF70FFF73D
:103E680063FDED20FFF772FD6420FFF793FD03204B
:103E7800FFF790FD1220FFF78DFD8120FFF78AFDE7
:103E88004FF6FF70FFF750FDE820FFF75FFD852034
:103E9800FFF780FD1020FFF77DFD7820FFF77AFD02
:103EA8004FF6FF70FFF740FDCB20FFF74FFD39209D
:103EB800FFF770FD2C20FFF76DFD0020FFF76AFD6E
:103EC8003420FFF767FD0220FFF764FD4FF6FF700F
:103ED800FFF72AFDF720FFF739FD2020FFF75AFDED
:103EE8004FF6FF70FFF720FDEA20FFF72FFD0020B7
:103EF800FFF750FD0020FFF74DFD4FF6FF70FFF76D
:103F080013FDC020FFF722FD2120FFF743FD4FF6E8
:103F1800FF70FFF709FDC120FFF718FD1120FFF71B
:103F280039FDC520FFF712FD2D20FFF733FD3320A3
:103F3800FFF730FD4FF6FF70FFF7F6FC3620FFF76E
:103F480005FD0020FFF726FD4FF6FF70FFF7ECFC9C
:103F58003A20FFF7FBFC5520FFF71CFD4FF6FF70DA
:103F6800FFF7E2FCB120FFF7F1FC0020FFF712FD9C
:103F78001720FFF70FFD4FF6FF70FFF7D5FCB620AF
:103F8800FFF7E4FC0A20FFF705FDA220FFF702FD7A
:103F9800F620FFF7DBFC0120FFF7FCFC3020FFF7E1
:103FA800F9FCF220FFF7D2FC0020FFF7F3FC2620F3
:103FB800FFF7CCFC0120FFF7EDFC4FF6FF70FFF791
:103FC800B3FCE020FFF7C2FCD020FFF7E3FC0020A1
:103FD800FFF7E0FC0220FFF7DDFC0720FFF7DAFC23
:103FE8000B20FFF7D7FC1A20FFF7D4FC3120FFF78E
:103FF800D1FC5420FFF7CEFC4020FFF7CBFC292052
:10400800FFF7C8FC1220FFF7C5FC1220FFF7C2FC1F
:104018001220FFF7BFFC1720FFF7BCFCE120FFF7D9
:1040280095FCD020FFF7B6FC0020FFF7B3FC022078
:10403800FFF7B0FC0720FFF7ADFC0520FFF7AAFC4F
:104048002520FFF7A7FC2D20FFF7A4FC4420FFF74D
:10405800A1FC4520FFF79EFC1C20FFF79BFC1820C5
:10406800FFF798FC1620FFF795FC1C20FFF792FC41
:104078001D20FFF78FFC1120FFF768FC0848FFF7A9
:1040880053FC4FF6FF70FFF74FFC2920FFF75EFC4B
:104098002C20FFF75BFC00BF80BD00BFD80B0020C1
:1040A800FCBF020080B582B000AF0023FB80042073
:1040B800FFF74CFCFFF792FCFFF790FCFFF78EFC34
:1040C8000346FB80FB881B02FB80FFF787FC034647
:1040D8001A46FB881343FB80FB8848F252529342EE
:1040E80001D1FB881CE0D320FFF730FCFFF776FCFA
:1040F800FFF774FCFFF772FC0346FB80FB881B028A
:10410800FB80FFF76BFC03461A46FB881343FB80D2
:10411800FB8849F24132934201D1FB8800E0002339
:1041280018460837BD4680BD80B500AFFFF790FC44
:10413800012000F00BF8FFF711FD034B1B78184620
:1041480000F01CF800BF80BD4800002080B483B098
:1041580000AF0346FB71FB79002B04D0064B4FF4EC
:1041680080221A6102E0044B04221A6100BF0C3756
:10417800BD4680BC704700BF0014014080B582B0C6
:1041880000AF0346FB71FB79072B74D83C4AFB79D7
:104198001370FB7903F00103DBB2002B07D1394B15
:1041A800F0221A80384B4FF4A0721A8006E0354B83
:1041B8004FF4A0721A80344BF0221A803620FFF791
:1041C800C5FB324B1B8849F2413293420AD1FB7935
:1041D8005B011BB243F008031BB29BB21846FFF702
:1041E800D9FB0CE0294B1B8848F25252934206D166
:1041F800FB799BB25B019BB21846FFF7CBFB2A20E9
:10420800FFF7A4FB0020FFF7C5FB0020FFF7C2FB68
:104218001C4B1B88013B1B129BB2DBB29BB218469E
:10422800FFF7B8FB174B1B88013B9BB2DBB29BB275
:104238001846FFF7AFFB2B20FFF788FB0020FFF79E
:10424800A9FB0020FFF7A6FB0F4B1B88013B1B12A5
:104258009BB2DBB29BB21846FFF79CFB0A4B1B884C
:10426800013B9BB2DBB29BB21846FFF793FB2C20B5
:10427800FFF76CFB00E000BF0837BD4680BD00BFFC
:10428800480000204400002046000020D80B0020F1
:1042980090B583B000AF0446084611461A46234637
:1042A800FB800346BB800B467B8013463B802A205D
:1042B800FFF74CFBFB881B0A9BB21846FFF76AFB0B
:1042C800FB88DBB29BB21846FFF764FBFA887B8851
:1042D8001344013B1B129BB21846FFF75BFBFA889D
:1042E8007B8813449BB2013B9BB2DBB29BB218465E
:1042F800FFF750FB2B20FFF729FBBB881B0A9BB25B
:104308001846FFF747FBBB88DBB29BB21846FFF79E
:1043180041FBBA883B881344013B1B129BB21846E9
:10432800FFF738FBBA883B8813449BB2013B9BB22A
:10433800DBB29BB21846FFF72DFB00BF0C37BD461A
:1043480090BD80B584B000AF78600B467B800023B9
:10435800FB602C20FFF7FAFA0023FB6006E07B885D
:104368001846FFF717FBFB680133FB60FA687B68A8
:104378009A42F4D300BF00BF1037BD4680BD00008D
:1043880090B583B000AF0446084611461A46234646
:10439800FB800346BB800B467B8013463B803B88F3
:1043A8007A88B988F888FFF773FF7B883A8802FB18
:1043B80003F31A46044B1B8819461046FFF7C1FF42
:1043C80000BF0C37BD4690BD5000002080B586B0B8
:1043D80000AF0346FB800B46BB801346FB70FB789F
:1043E8009BB2203BBB82294B1B689B881A46274BF4
:1043F8001B68DB8802FB03F3002B00DA0733DB10B2
:10440800FB74224B1B681B68BA8AF97C01FB02F219
:104418001344FB601D4B1B689A881C4B1B68DB8888
:10442800B988F888FFF734FF2C20FFF78FFA0023AC
:10443800FB7522E00023BB7519E0FB7DFA68134485
:104448001B781946BB7D802242FA03F30B40002BF0
:1044580005D00F4B1B881846FFF79CFA04E00D4B5C
:104468001B881846FFF796FABB7D0133BB75BB7DE9
:10447800072BE2D9FB7D0133FB75FA7DFB7C9A4261
:10448800D8D300BF00BF1837BD4680BD4C00002000
:10449800DA0B00205000002080B58CB000AF034636
:1044A800FB800B46BB8013467B80B988F8881023B5
:1044B8001022FFF7EDFE2C20FFF748FA7A8807F163
:1044C8000C031146184600F0FDF9002387F82F3039
:1044D8003DE097F82F305B0030333B4413F8243C21
:1044E800BB85BB8D1B02BB8597F82F305B00013362
:1044F80030333B4413F8243C9AB2BB8D1343BB853D
:10450800002387F82E3019E0BA8D97F82E304FF433
:10451800004141FA03F31340002B05D0104B1B88D0
:104528001846FFF737FA04E00E4B1B881846FFF7CA
:1045380031FA97F82E30013387F82E3097F82E305D
:104548000F2BE1D997F82F30013387F82F3097F8E0
:104558002F300F2BBDD900BF00BF3037BD4680BDFF
:10456800DA0B00205000002080B584B000AF03466D
:104578003960FB800023FB8159E03B681B787E2B68
:104588002ED8FB892E4A1268928813442D4A128825
:10459800934207DD0023FB81294B1B68DA88FB88DF
:1045A8001344FB80FB88264A1268D2881344264AA3
:1045B8001288934203DD0023FB810023FB803B68C4
:1045C8001A78F988FB891846FFF700FF1C4B1B680F
:1045D8009A88FB891344FB813B6801333B6026E0E2
:1045E800FB890F33174A1288934204DB0023FB81AF
:1045F800FB881033FB80FB880F33134A12889342E1
:1046080003DB0023FB810023FB803B681B88BB8105
:10461800BB895BBABB81BA89F988FB891846FFF761
:104628003BFFFB891033FB813B6802333B603B68EF
:104638001B78002BA1D100BF00BF1037BD4680BD3D
:104648004C000020440000204600002080B400AF49
:10465800024B1B681846BD4680BC70474C000020C2
:1046680080B483B000AF0346FB80044AFB88138004
:1046780000BF0C37BD4680BC704700BFDA0B002076
:1046880090B583B000AF0346FB80074B1C88FFF74B
:10469800DDFF0346DB88F98822460020FFF770FE1D
:1046A80000BF0C37BD4690BD4400002080B586B0E1
:1046B80000AF1C4B9B691B4A43F010039361194BD5
:1046C8009B6903F010037B607B68164B9B69154A56
:1046D80043F010039361134B9B6903F010033B6095
:1046E8003B680423BB600123FB6001233B61032378
:1046F8007B6107F1080319460B48FDF7C1FC082345
:10470800BB6007F1080319460748FDF7B9FC064BDB
:1047180004221A61044B08221A6100BF1837BD46EB
:1047280080BD00BF001002400010014080B500AFFE
:10473800194B1A4A1A60184B0822DA61164B0022E4
:104748009A60154B01225A61134B02221A61124BCF
:1047580000229A62104B0722DA620F4B0022DA60BD
:104768000D4B00221A620C4B4FF400729A610A4BEF
:1047780000225A62084B4FF482725A600648FEF7CC
:1047880053FA054B1B681A68034B1B6842F040023A
:104798001A6000BF80BD00BFDC0B00200030014064
:1047A80080B584B000AFF860B9601346FB80174B42
:1047B8004FF480121A61032000F02AF8BB681B0C22
:1047C800DBB2184600F024F8BB681B0ADBB21846B7
:1047D80000F01EF8BB68DBB2184600F019F809E0D3
:1047E800FF2000F015F803461A46FB681A70FB68AC
:1047F8000133FB60FB885A1EFA80002BF0D1034B73
:1048080010221A6100BF1037BD4680BD0008014064
:1048180080B582B000AF0346FB711F4B4FF4805246
:104828001A600CE01C4B1B685A1E1B490A60002BBF
:1048380005D1002000F034F80346DBB227E0174B1F
:104848001B689B6803F00203022BEBD1134B1B6818
:10485800FA79DA60104B4FF480521A600CE00E4B74
:104868001B685A1E0C490A60002B05D1012000F074
:1048780017F80346DBB20AE0084B1B689B6803F095
:104888000103012BEBD1054B1B68DB68DBB2184633
:104898000837BD4680BD00BF54000020DC0B002057
:1048A80080B582B000AF0346FB71FB791946044816
:1048B80000F0B2F8002318460837BD4680BD00BF97
:1048C800FCC7000880B584B000AF78600B467B80D9
:1048D800124B1B78002B04D1FFF728FF0F4B012246
:1048E8001A707B881B0A9BB2FB737B88BB73FB7BAC
:1048F800A13B5E2203FB02F2BB7B1344A13B5B019D
:10490800BB60BB6803F5CB13202219467868FFF714
:1049180047FF002318461037BD4680BD340C0020E1
:10492800014B1868704700BF6000002070B50D4E3D
:104938000D4D761BB61006D0002455F8043B013403
:104948009847A642F9D1094E094D07F099FE761B02
:10495800B61006D0002455F8043B01349847A64207
:10496800F9D170BD70D2000870D2000878D2000862
:1049780070D20008830730B548D0541E002A3FD0B3
:104988000346CAB201E0013C3AD303F8012B9D0764
:10499800F9D1032C2DD9CDB245EA05250F2C45EACE
:1049A800054536D9A4F1100222F00F0C03F1200EB0
:1049B800E6444FEA121C03F1100242E9045542E9A9
:1049C800025510327245F8D10CF1010214F00C0FA7
:1049D80003EB021204F00F0C13D0ACF1040323F024
:1049E80003030433134442F8045B9342FBD10CF0F5
:1049F80003042CB1CAB21C4403F8012B9C42FBD11E
:104A080030BD64461346002CF4D1F9E7034614463A
:104A1800BFE71A46A446E0E70FB400B5074A83B0DB
:104A280004AB106853F8042B8168019301F008FE69
:104A380003B05DF804EB04B0704700BF60000020CD
:104A4800024B01461868826806F056B860000020DC
:104A580030B5054689B008460C4600F071F80121CA
:104A68000223214A04940692AA6B04AC05900844D8
:104A780001940791AC680293039022B3636E13F01C
:104A8800010FB4F90C309AB201D1980525D59104DB
:104A980006D4626E43F4005322F40052A381626686
:104AA800284601AA214604F0EFFE636E002814BFD1
:104AB8004FF0FF350A25DA0702D4A3899B0506D5EE
:104AC800284609B030BD284604F0E6FCD6E7A06DBC
:104AD80005F080F8284609B030BDA06D05F078F8DB
:104AE800B4F90C309AB2D2E74CCE0008024B01461A
:104AF8001868FFF7ADBF00BF600000200EB430B5E6
:104B080004466FF000459CB00B4A1FAB0B49059259
:104B180053F8042B086802A9CDE9013407950495D8
:104B2800069400F03BF80022029B1A701CB0BDE806
:104B3800304003B0704700BF0802FFFF600000204C
:104B480020F0030110F00300C0F1000051F8043B0D
:104B580000F1040C4FEACC0C6FF000021CBF22FAE3
:104B68000CF213434FF0010C4CEA0C2C4CEA0C4CA1
:104B7800A3EB0C0222EA030212EACC1204BF51F89A
:104B8800043B0430F4D0C2F1000102EA0102B2FA97
:104B980082F2C2F11F0200EBD20070472DE9F04FFC
:104BA800D5B00C460C9191460E930A9005F008F882
:104BB800036818461793FFF7C3FFA38916901906D1
:104BC80003D52369002B00F08F8700242BAB2246E6
:104BD80098464D46CDE92944289312940023002491
:104BE800CDE914342B78CDE91922CDE91B2218928E
:104BF8000892002B00F0CE81AA4604E01AF8013F83
:104C0800002B00F00981252BF8D1BAEB050640F0FE
:104C180007819AF80030002B00F0BC8100234FF088
:104C2800FF324FF02B0920241F469AF801600792A3
:104C38000AF1010A8DF8833009930AF1010AA6F1F5
:104C480020035A2B00F22081DFE813F0CA021E016C
:104C58001E01C5021E011E011E01A3021E011E0126
:104C68006A00F3021E014702D9021E01D4025B004A
:104C78005B005B005B005B005B005B005B005B0054
:104C88001E011E011E011E011E011E011E01B00192
:104C98001E010B027A00B001B001B0011E011E0115
:104CA8001E011E019E021E011E01B6001E011E01EC
:104CB8001E0119021E014C021E011E013F071E01A2
:104CC8001E011E011E011E011E011E011E01B00152
:104CD8001E010B027C00B001B001B00191027C0002
:104CE80075001E0184021E017002B8005E02750084
:104CF8001E01190272001C071E011E011F071E015A
:104D080072000022A6F130031AF8016B02EB82024E
:104D180003EB4202A6F13003092BF5D909928EE77D
:104D28000E9B53F8042B002A09920E93C0F2D281ED
:104D38009AF8006081E79AF8006047F020077CE75E
:104D480047F01007BA060E9B40F17D81073323F028
:104D580007031A465B6852F8084B99460E92002BD7
:104D6800C0F27F85079B013301F0398054EA0903BB
:104D780027F0800B00F005850A2C79F1000380F0FC
:104D8800938701235F4630348DF84F410B930DF222
:104D98004F15079A0B9900238A42B8BF0A46069214
:104DA8009DF883200D930F9313931093002A7CD0C2
:104DB800069B0133069378E047F0100717F02009A7
:104DC80000F032810E9B073323F00703D3F80490D9
:104DD80053F8084B0E93002327F4806B00228DF8BC
:104DE8008320079A511C00F02A8254EA09012BF00B
:104DF800800740F02382002A41F02B80002B40F0EE
:104E0800C5841BF001030B9300F0548530230DF289
:104E18004F158DF84F31BCE7BAEB050600F0BA80A4
:104E28002A9BC8E9005633442A93299B0133072B50
:104E3800299305DC08F10808089B33440893E8E641
:104E48000C990A9828AA06F043F980B90DF1AC0824
:104E5800F2E70C990A9828AA06F03AF9002800F017
:104E68008A800D9B1BB10D990A9804F00DFC0C9BD0
:104E78009B8913F0400F089B18BF4FF0FF3308932E
:104E8800089855B0BDE8F08F002E00F0838001230C
:104E980000228DF8EC6006933BAD8DF883200B93D0
:104EA8000D9207920F921392109217F0020302D0FC
:104EB80006990231069117F0840B07D109990698D3
:104EC800A1EB0009B9F1000F00F336832A9C82B1E7
:104ED8000122C8F80420299A013401320DF1830116
:104EE800072A2A942992C8F8001000F3698308F168
:104EF80008087BB10223C8F80430299B0234013327
:104F080021AA072B2A942993C8F8002000F36C8360
:104F180008F10808BBF1800F00F02E82079B0B9A5E
:104F2800A3EB020BBBF1000F00F37182FB0500F14C
:104F3800C5810B9BC8F800501C44C8F80430299B55
:104F48002A940133072B299300F3EA8208F1080811
:104F58007B0705D5099B069A9D1A002D00F35083FF
:104F6800DDE9083206998A42ACBF9B185B180893A2
:104F7800002C7FF46EAF002329930D9B1BB10D9974
:104F88000A9804F081FB55460DF1AC082B78002BEC
:104F98007FF432AE2A9B002B3FF469AF0C9C0A9831
:104FA800214628AA06F094F8A38962E70E9B0733E6
:104FB80023F00702F2E80234CDE91434DDE91434B1
:104FC80024F00044994618460E9221464FF0FF32CD
:104FD800B64BFCF7E5F8002840F096844846214691
:104FE8004FF0FF32B14BFCF7BDF8002840F08C843D
:104FF800DDE9140100220023FCF7AAF8002840F09C
:10500800A6879DF8832000210320A94DA94B27F0EE
:1050180080070D910690472EC8BF1D4607910B903B
:105028000F9113911091C1E617F0100340F06284BC
:1050380017F0400200F07B870E9A994652F8044B0D
:105048000E92A4B2C7E653F8044B0E93FB0600F188
:1050580041847D0640F13B8444F3C0394B4624B279
:105068007DE6012000220E9B069053F8041B3BAD01
:105078008DF883208DF8EC100E930B9010E74FF00D
:1050880000090E9C079B54F8045B8DF88390002D53
:1050980000F0EE865A1C00F060851A4649462846FC
:1050A80005F0B6F80D90002801F09E800D9B9DF844
:1050B80083205B1B0B9323EAE373CDF81C900E94BB
:1050C8000693CDF83490CDF83C90CDF84C90CDF8BF
:1050D80040906BE6099B5B4209939AF8006047F0A1
:1050E8000407AAE547F0100B1BF0200900F0AA837B
:1050F8000E9B073323F007031A4652F8084BD3F8E0
:1051080004900E92012369E6302278260E9B8DF8D2
:10511800842053F8044B684A0E934FF00009022389
:1051280047F0020B8DF88560189257E6BD0600F12E
:10513800D683FC0600F19386780600F15D87B905F1
:1051480040F18D860E9B089953F8042B5546117033
:105158000E931BE79AF800606C2E03BF9AF8016063
:1051680047F020070AF1010A47F0100765E59AF8A9
:105178000060682E03BF9AF8016047F400770AF1CF
:10518800010A47F0400758E59AF8006047F0080719
:1051980053E50A9E304604F013FD436818461B93F6
:1051A800FFF7CEFC034630461C931E4604F008FD6C
:1051B80083681993002E3FF4BBAD199B002B3FF475
:1051C800B7AD199B1B78002B3FF4B2AD9AF800607D
:1051D80047F4806731E59AF8006047F001072CE54D
:1051E8009DF88330002B7FF4A3AD9AF800608DF80A
:1051F800834022E59AF8006047F080071DE5524693
:1052080012F8016B2A2E01F0EB81A6F13003092B6D
:10521800924698BF002201F203801AF8016B02EB54
:10522800820203EB4202A6F13003092BF5D907925B
:1052380005E59AF800608DF88390FEE4BB46012BE3
:105248003FF49AAD022B54AD12D1189A04F00F0313
:10525800D35C240944EA09744FEA191905F8013D99
:1052680054EA0903F2D154AB5B1B5F460B9390E5FC
:1052780004F00703E40844EA49744FEAD9093033D3
:1052880054EA09012A4605F8013DF1D11BF0010F46
:10529800E9D0302BE7D03023023A05F8013C54AB73
:1052A8009B1A5F4615460B9373E500BFFFFFEF7F20
:1052B80050CE000854CE000860CE0008652E40F39A
:1052C800E980DDE9140100220023FBF737FF0028FD
:1052D80000F0D2810123C8F80430299BBF4A01336A
:1052E8000134072B2A942993C8F8002000F37A8503
:1052F80008F10808229B129A934280F2D782169BE3
:10530800179A1C44C8E90023299B2A940133072BC8
:10531800299300F3DD8308F10808129B5D1E002D18
:105328007FF716AE102D41F34181DFF8B492224683
:1053380049461026B946299B0F46DDF828B00C9C33
:1053480005E008F10808103D102D40F35885013399
:105358001032072BC8E90076CDE92932F1DD214664
:10536800584628AA05F0B4FE00287FF47AADDDE996
:1053780029320DF1AC08E6E7099B069AA3EB020B6C
:10538800BBF1000F7FF7CAADBBF1100F41F30580E9
:10539800DFF84C9241462046A8464C461023299AED
:1053A8000C9DDDF8289006E0ABF1100BBBF1100F57
:1053B80001F1080119DD01321030072AC1E9004363
:1053C800CDE92920F0DD2946484628AA05F080FEC7
:1053D80000287FF446ADDDE92920ABF1100BBBF1C5
:1053E800100F4FF010032BA9E5DC4546A14688466F
:1053F800044601325C44072ACDE92924C8F8009004
:10540800C8F804B000F3188508F1080886E5BBF170
:10541800100F40F39785DFF8C89141462046A8460B
:105428004C461023299A0C9DDDF8289006E0ABF134
:10543800100BBBF1100F01F1080119DD013210301A
:10544800072AC1E90043CDE92920F0DD294648466D
:1054580028AA05F03DFE00287FF403ADDDE92920E8
:10546800ABF1100BBBF1100F4FF010032BA9E5DCCB
:105478004546A1468846044601325C44072ACDE9E0
:105488002924C8F80090C8F804B000F3CE8108F1C8
:1054980008084BE5129B012B40F37E810123299ECE
:1054A80001341E44072EC8F800502A94C8F8043066
:1054B800299600F3E18108F10808169B0136179A2E
:1054C8001C44072EC8E90023CDE9296400F3E181D3
:1054D80008F108080022DDE914010023FBF72EFE7D
:1054E800002840F07681129B0136013B01351C44AF
:1054F800072EC8F800502996C8F804302A9400F3FB
:105508005B8108F108081A9B01361C44C8F804306E
:10551800072E24ABCDE92964C8F800307FF716AD13
:105528000C990A9828AA05F0D3FD00287FF499ACB5
:105538002A9C0DF1AC080BE5B9F1100F40F3508629
:10554800DDE929214046CDE91D36B84610244F46ED
:105558000C9EA9460A9D04E0103F102F00F1080098
:1055680016DD01321F4B1031072AC0E90034CDE99E
:105578002921F1DD3146284628AA05F0A9FD002891
:105588007FF46FACDDE92921103F102F2BA8E8DC50
:105598004D46DDE91D36B9464746804609EB01040C
:1055A80001321049072ACDE92924C8F80490C8F81F
:1055B800001000F3C3839DF8832008F1080886E4EF
:1055C8000C990A9828AA1D9305F082FD00287FF4FB
:1055D80048AC2A9C1D9B0DF1AC088AE490CE0008CB
:1055E800A4CE000894CE00080C990A9828AA05F0C1
:1055F8006FFD00287FF435AC2A9C0DF1AC0889E4D6
:10560800102D40F3C4861026299B0A9FDDF83090A0
:1056180004E0103D102D08F1080817DD0133B84AE1
:105628001034072BC8E90026CDE92934F1DD4946B5
:10563800384628AA05F04CFD00287FF412ACDDE9B5
:105648002934103D102D0DF1AC08E7DC0133AC4ACC
:105658002C44072BCDE92934C8F80450C8F8002099
:105668007FF77EAC0C990A9828AA05F031FD00282E
:105678007FF4F7AB2A9C73E42299002940F36F83E7
:10568800DDF84090129B9945A8BF9946B9F1000FE3
:105698000BDD299B4C440133072BC8E900592A9498
:1056A800299300F31D8508F10808109EB9F1000F31
:1056B800A8BFA6EB0906002E00F32582DDF840B04E
:1056C8007805AB4400F15F82229B129A934202DB79
:1056D800F90740F17684169A17991444C8E900121C
:1056E800299A2A940132072A299200F3138508F18E
:1056F8000808129AAE18A6EB0B06D51AAE42A8BF38
:105708002E46002E0DDD299B34440133072BC8F8A3
:1057180000B0C8F804602A94299300F3718508F151
:105728000808002EA8BFAD1B002D7FF711AC102D67
:1057380040F33C87DFF8CC91224649461026B9460B
:10574800299B0F46DDF828B00C9C05E008F10808F5
:10575800103D102D40F3538301331032072BC8E955
:105768000076CDE92932F1DD2146584628AA05F010
:10577800AFFC00287FF475ABDDE929320DF1AC08E8
:10578800E6E7079B002B7FF4FCAA5F46002354AD95
:1057980007930B93FFF7FDBAFA073FF57FAE012396
:1057A800299E01341E44072EC8F800502A94C8F8D0
:1057B800043029967FF7A5AE0C990A9828AA05F017
:1057C80087FC00287FF44DABDDE929640DF1AC08B6
:1057D80099E6129B5D1E002D7FF795AE102D40F3C4
:1057E800DF86224607974FF0100BDFF818910A9CC6
:1057F8000C9F05E008F10808103D102D40F37F8349
:1058080001361032072EC8E9009BCDE92962F1DD87
:105818003946204628AA05F05BFC00287FF421AB16
:10582800DDE929620DF1AC08E6E70C990A9828AA87
:1058380005F04EFC00287FF414AB2A9C0DF1AC084F
:10584800FFF774BB1BF010030E9A3AD11BF040010E
:1058580033D052F8044B99460E920123A4B2FFF7B5
:10586800BDBA2D2364428DF88330BB464FF0010347
:1058780069EB4909FFF7B5BA0C990A9828AA05F007
:1058880027FC00287FF4EDAADDE929640DF1AC08B6
:1058980013E60C990A9828AA05F01AFC00287FF448
:1058A800E0AADDE929640DF1AC0813E6FD077FF5F0
:1058B8004FAB24E554ADFFF76CBA1BF4007940F008
:1058C8008A8352F8044B01230E92FFF787BAB80572
:1058D80000F19B834FEAE4794B46FFF740BA0E9BF1
:1058E800089853F8041BC2175546C1E900020E93E5
:1058F800FFF74CBB0E9B53F8044B0E93FFF76BBAA4
:1059080094CE0008A4CE0008DDE9140102460B4637
:10591800FBF746FC002840F0E985612E00F07D8504
:10592800412E00F08B84079B013300F08F8326F013
:105938002003472B069300F08F85DDE9141247F406
:1059480080730F931346002BC0F2B0850B9300238E
:105958008B461D930D93069B462B00F0E983452B40
:1059680000F0468507990B9B01910221009126A919
:10597800049123A9039122A95A460A98029102F098
:105988005FFD069B0546472B40F03A8617F0010F4E
:10599800B9460F9F40F0FE84269B5B1B1293069B23
:1059A800472B00F06E83069B462B00F0F083229B6A
:1059B8001093109B069A013B412A229300F0BB8565
:1059C8000021F2B2002B8DF89020B6BF2D222B2299
:1059D800109B8DF89120B8BFC3F10103092B40F348
:1059E8009B850DF19F0C6246B64F1C46104687FBFF
:1059F8000312D917C1EBA20101EB8102A3EB42020A
:105A08003032632C00F8012C0B4600F1FF32ECDC3D
:105A18003033811EDBB28C4502F8013C40F2F98537
:105A28000DF1920101E012F8013B944501F8013BA8
:105A3800F9D10DF1A1030DF192021B1A134424AA06
:105A48009B1A1A93129B1A9A012B1A440B9240F331
:105A580081850B9B169A13440B9300230B9A29F408
:105A6800806722EAE27247F480770F9306921393D5
:105A780010931D9B002B40F02C839DF883200793E7
:105A8800FFF794B9BB46FFF72FBB8F4B189317F05E
:105A9800200900F0F5800E9B073323F00703D3F8A5
:105AA800049053F8084B0E93F80709D554EA0903F4
:105AB80006D030238DF8856047F002078DF88430D2
:105AC800022327F4806BFFF789B9804B1893DEE730
